:100000000C945C000C9479000C9479000C947900A9
:100010000C9479000C9479000C9479000C9479007C
:100020000C9479000C9479000C9479000C9479006C
:100030000C9479000C9479000C9479000C9479005C
:100040000C9454010C9479000C9479000C94790070
:100050000C9479000C9479000C9479000C9479003C
:100060000C9479000C947900000000080002010053
:100070000003040700000000000000000000000072
:10008000250028002B0000000000240027002A0083
:10009000040404040404040402020202020203032E
:1000A0000303030301020408102040800102040836
:1000B000102001020408102011241FBECFEFD8E049
:1000C000DEBFCDBF11E0A0E0B1E0E6E0F5E002C0A8
:1000D00005900D92A030B107D9F721E0A0E0B1E082
:1000E00001C01D92A930B207E1F70E949E010C9455
:1000F00081020C94000090E0FC01EC55FF4F24912C
:1001000080579F4FFC018491882399F090E0880FDD
:10011000991FFC01EA57FF4FA591B491FC01E458E7
:10012000FF4F859194918FB7F894EC91E22BEC936B
:100130008FBF089590E0FC01E859FF4F2491FC0126
:10014000EC55FF4F3491FC01E057FF4FE491EE2353
:10015000C9F0222339F0233001F1A8F4213019F13C
:10016000223029F1F0E0EE0FFF1FE458FF4FA59178
:10017000B4918FB7F894EC91611126C030953E236D
:100180003C938FBF08952730A9F02830C9F0243060
:1001900049F7809180008F7D03C0809180008F7728
:1001A00080938000DFCF84B58F7784BDDBCF84B5AB
:1001B0008F7DFBCF8091B0008F778093B000D2CF3E
:1001C0008091B0008F7DF9CF3E2BDACF1F93CF9374
:1001D000DF93182FEB010E947B00209739F460E039
:1001E000812FDF91CF911F910C949A00CF3FD105C1
:1001F00011F461E0F5CFE12FF0E0E859FF4FE49111
:10020000E33031F140F4E130B1F0E230E1F0C038F8
:10021000D1057CF7E4CFE73029F1E83059F1E4303B
:10022000B1F780918000806280938000D0938B0032
:10023000C0938A0004C084B5806884BDC7BDDF91C7
:10024000CF911F91089584B5806284BDC8BDF7CF5A
:1002500080918000806880938000D0938900C09353
:100260008800EDCF8091B00080688093B000C0938B
:10027000B300E5CF8091B00080628093B000C0935E
:10028000B400DDCF8E50806480937C0080917A0032
:10029000806480937A0080917A0086FDFCCF809103
:1002A00078009091790008951F920F920FB60F92E7
:1002B00011242F933F938F939F93AF93BF9380917C
:1002C000050190910601A0910701B09108013091BC
:1002D000040123E0230F2D3758F50196A11DB11D10
:1002E000209304018093050190930601A0930701D8
:1002F000B09308018091000190910101A091020149
:10030000B09103010196A11DB11D8093000190934E
:100310000101A0930201B0930301BF91AF919F919E
:100320008F913F912F910F900FBE0F901F901895B6
:1003300026E8230F0296A11DB11DD2CF789484B573
:10034000826084BD84B5816084BD85B5826085BDD1
:1003500085B5816085BD80916E00816080936E005F
:100360001092810080918100826080938100809151
:100370008100816080938100809180008160809302
:1003800080008091B10084608093B1008091B000C2
:1003900081608093B00080917A00846080937A00BD
:1003A00080917A00826080937A0080917A008160E7
:1003B00080937A0080917A00806880937A0010920E
:1003C000C10089E00E947B008AE00E947B008BE0F4
:1003D0000E947B0088248A9483E0982EA12CB12C63
:1003E000C0E0D0E08EE00E9442016C018FE00E94EC
:1003F00042017C0180E10E9442018C012FEF30E03C
:10040000D6010E947A02A50194010E942A02B90134
:1004100089E00E94E6002FEF30E0D7010E947A02C7
:10042000A50194010E942A02B9018AE00E94E60017
:100430002FEF30E0D8010E947A02A50194010E94BA
:100440002A02B9018BE00E94E600209759F20E942F
:100450000000C8CF052E97FB1EF400940E944102B5
:1004600057FD07D00E94490207FC03D04EF40C94BC
:10047000410250954095309521953F4F4F4F5F4F2A
:10048000089590958095709561957F4F8F4F9F4F00
:100490000895A1E21A2EAA1BBB1BFD010DC0AA1FC5
:1004A000BB1FEE1FFF1FA217B307E407F50720F0DD
:1004B000A21BB30BE40BF50B661F771F881F991F58
:1004C0001A9469F760957095809590959B01AC01A1
:1004D000BD01CF010895A29FB001B39FC001A39FAA
:1004E000700D811D1124911DB29F700D811D11246D
:1004F000911D08950E946B02B7FF0895821B930B14
:060500000895F894FFCFFE
:00000001FF
