:100000000C9462000C948A000C948A000C948A0070
:100010000C948A000C948A000C948A000C948A0038
:100020000C948A000C948A000C948A000C948A0028
:100030000C948A000C948A000C948A000C948A0018
:100040000C9493030C948A000C9403040C94DD0329
:100050000C948A000C948A000C948A000C948A00F8
:100060000C948A000C948A000000000024002700F1
:100070002A0000000000250028002B0000000000DE
:1000800023002600290004040404040404040202DA
:100090000202020203030303030301020408102007
:1000A0004080010204081020010204081020000012
:1000B0000008000201000003040700000000000027
:1000C0000000350411241FBECFEFD8E0DEBFCDBF46
:1000D00011E0A0E0B1E0EAEEFEE002C005900D9272
:1000E000AC31B107D9F721E0ACE1B1E001C01D921C
:1000F000AF3CB207E1F710E0C2E6D0E004C02197C0
:10010000FE010E946807C136D107C9F70E946A0440
:100110000C9473070C940000FC01538D448D252F23
:1001200030E0842F90E0821B930B541710F0CF9691
:10013000089501970895FC01918D828D981761F0C3
:10014000828DDF01A80FB11D5D968C91928D9F5F0E
:100150009F73928F90E008958FEF9FEF0895FC01B9
:10016000918D828D981731F0828DE80FF11D858D6C
:1001700090E008958FEF9FEF0895FC01918D228DFF
:10018000892F90E0805C9F4F821B91098F73992784
:100190000895FC01848DDF01A80FB11DA35ABF4F44
:1001A0002C91848D90E001968F739927848FA68976
:1001B000B7892C93A089B1898C91837080648C93CA
:1001C000938D848D981306C00288F389E02D808179
:1001D0008F7D80830895EF92FF920F931F93CF93AB
:1001E000DF93EC0181E0888F9B8D8C8D981305C087
:1001F000E889F989808185FD26C0F62E0B8D10E0F7
:100200000F5F1F4F0F731127E02E8C8DE8120CC06B
:100210000FB607FCFACFE889F989808185FFF5CF11
:10022000CE010E94C900F1CF8B8DFE01E80FF11DB8
:10023000E35AFF4FF0829FB7F8940B8FEA89FB894E
:10024000808180620AC09FB7F894EE89FF8960833D
:10025000E889F98980818370806480839FBF81E011
:1002600090E0DF91CF911F910F91FF90EF90089553
:10027000CF93DF93EC01888D8823C9F0EA89FB894D
:10028000808185FD05C0A889B9898C9186FD0FC044
:100290000FB607FCF5CF808185FFF2CFA889B98919
:1002A0008C9185FFEDCFCE010E94C900E7CFDF9191
:1002B000CF91089585E291E00E94BD0021E0892B55
:1002C00009F420E0822F089580E090E0892B29F046
:1002D0000E945A0181110C9400000895833081F02E
:1002E00028F4813099F08230A1F008958730A9F088
:1002F0008830B9F08430D1F4809180008F7D03C0C4
:10030000809180008F7780938000089584B58F77E7
:1003100002C084B58F7D84BD08958091B0008F7731
:1003200003C08091B0008F7D8093B0000895CF937B
:10033000DF93282F30E0F901E255FF4F8491F90156
:10034000E656FF4FD491F901EA57FF4FC491CC23F1
:1003500091F081110E946E01EC2FF0E0EE0FFF1F73
:10036000E458FF4FA591B491EC91ED2381E090E02A
:1003700021F480E002C080E090E0DF91CF91089509
:100380001F93CF93DF93282F30E0F901E255FF4F01
:100390008491F901E656FF4FD491F901EA57FF4FD6
:1003A000C491CC23C1F0162F81110E946E01EC2F55
:1003B000F0E0EE0FFF1FEE58FF4FA591B4919FB7ED
:1003C000F894111104C08C91D095D82302C0EC91FF
:1003D000DE2BDC939FBFDF91CF911F910895CF93C8
:1003E000DF9390E0FC01E656FF4F2491FC01EA57B1
:1003F000FF4F8491882361F190E0880F991FFC01E1
:10040000E859FF4FC591D491FC01EE58FF4FA591DB
:10041000B491611109C09FB7F89488812095822317
:100420008883EC912E230BC0623061F49FB7F8945F
:100430008881322F309583238883EC912E2B2C9347
:100440009FBF06C08FB7F894E8812E2B28838FBFFB
:10045000DF91CF9108953FB7F89480911D0190915D
:100460001E01A0911F01B091200126B5A89B05C0D7
:100470002F3F19F00196A11DB11D3FBFBA2FA92F23
:10048000982F8827820F911DA11DB11DBC01CD01A0
:1004900042E0660F771F881F991F4A95D1F708958C
:1004A0008F929F92AF92BF92CF92DF92EF92FF9284
:1004B0006B017C010E942B024B015C01C114D10431
:1004C000E104F104F1F00E942B02DC01CB01881958
:1004D0009909AA09BB09883E9340A105B10570F3AB
:1004E00021E0C21AD108E108F10888EE880E83E005
:1004F000981EA11CB11CC114D104E104F10419F728
:10050000DDCFFF90EF90DF90CF90BF90AF909F90A6
:100510008F900895EF92FF921F93CF93DF9361E046
:100520008091C8010E94C0016AEF70E080E090E015
:100530000E9450022FB7F8948091210190912201DE
:10054000A0912301B09124012FBF4091CA01509185
:10055000CB016091CC017091CD0184179507A6075E
:10056000B70740F41092CA011092CB011092CC014F
:100570001092CD012091CE01211113C04091CA01EA
:100580005091CB016091CC017091CD01841B950BF2
:10059000A60BB70B803D9740A105B10510F481E093
:1005A00084C01092CE012FB7F894809121019091D0
:1005B0002201A0912301B09124012FBF8093CA0191
:1005C0009093CB01A093CC01B093CD011092C601C2
:1005D0001092C5011092C4011092C3011092C20181
:1005E00061E08091C8010E94EF0160E08091C80144
:1005F0000E94C00164E170E080E090E00E9450023F
:10060000F89461E08091C8010E94C0018BE990E0FC
:100610000197F1F760E08091C8010E94EF0110E0BE
:1006200081E0C0E0D0E0E82EF12C8091C8010E946A
:1006300097018E159F0519F4DF5FDF3FB1F78091B9
:10064000C8010E949701DF3FA9F0C43080F0C0FDCF
:100650000EC0E12FE695E695E695F0E0EE53FE4FED
:100660009081990FD73008F0916090831F5FCF5F22
:10067000C535C1F678941832B8F02091C60130E043
:100680004091C2018091C30190E0840F911D40917F
:10069000C401840F911D4091C501840F911D9927BC
:1006A0002817390709F47BCF80E0DF91CF911F91A4
:1006B000FF90EF900895CF92DF92EF92FF920F9309
:1006C0001F93CF93DF936C017A018B01C0E0D0E0E0
:1006D000CE15DF0581F0D8016D918D01D601ED9128
:1006E000FC910190F081E02DC6010995892B11F054
:1006F0002196EECF7E01C701DF91CF911F910F911F
:10070000FF90EF90DF90CF90089549E050E062E1D4
:1007100071E085E291E00C945B03089580E090E045
:1007200008950E946E071F920F920FB60F92112428
:100730002F933F938F939F93AF93BF93809121010A
:1007400090912201A0912301B091240130911C01CC
:1007500023E0230F2D3720F40196A11DB11D05C004
:1007600026E8230F0296A11DB11D20931C01809342
:10077000210190932201A0932301B0932401809141
:100780001D0190911E01A0911F01B09120010196C1
:10079000A11DB11D80931D0190931E01A0931F0107
:1007A000B0932001BF91AF919F918F913F912F9175
:1007B0000F900FBE0F901F9018951F920F920FB6BB
:1007C0000F9211242F933F934F935F936F937F93D7
:1007D0008F939F93AF93BF93EF93FF9385E291E045
:1007E0000E94C900FF91EF91BF91AF919F918F91AE
:1007F0007F916F915F914F913F912F910F900FBE1D
:100800000F901F9018951F920F920FB60F92112400
:100810002F938F939F93EF93FF93E0913501F09186
:1008200036018081E0913B01F0913C0182FD12C0D4
:10083000908180913E018F5F8F7320913F018217DD
:1008400051F0E0913E01F0E0EB5DFE4F958F80931B
:100850003E0101C08081FF91EF919F918F912F9177
:100860000F900FBE0F901F901895E5E2F1E01382F4
:10087000128288EE93E0A0E0B0E084839583A683A3
:10088000B78384E091E09183808385EC90E0958745
:10089000848784EC90E09787868780EC90E0918B4A
:1008A000808B81EC90E0938B828B82EC90E0958B37
:1008B000848B86EC90E0978B868B118E128E138E34
:1008C000148EE2ECF1E082E086838BE0878381E0A6
:1008D00084870895789484B5826084BD84B58160EE
:1008E00084BD85B5826085BD85B5816085BD8091FB
:1008F0006E00816080936E00109281008091810073
:10090000826080938100809181008160809381006A
:10091000809180008160809380008091B10084602C
:100920008093B1008091B00081608093B00080918D
:100930007A00846080937A0080917A00826080934C
:100940007A0080917A00816080937A0080917A00A9
:10095000806880937A001092C10060E08091C801A5
:100960000E94EF0161E08091C8010E94C0011092D5
:10097000CA011092CB011092CC011092CD010E94BD
:100980008A02882399F18091C9018B3029F170F195
:100990008551823058F56091C20170E080E090E0AE
:1009A0000E94440620E030E040E853E40E94FB0649
:1009B0006B017C016091C30170E080E090E00E94D7
:1009C0004606A70196010E94610520E030E040E262
:1009D00051E40E94D20507C06091C20170E080E03E
:1009E00090E00E9444066B017C0108C00E948503D0
:1009F000C12CD12C80ECE82E8FE7F82E0E948A02C1
:100A00008823B9F18091C9018B3029F090F185518B
:100A1000823048F02EC06091C40170E080E090E028
:100A20000E9444062CC0C091C4016C2F6F7770E007
:100A300080E090E00E94460620E030E040E853E489
:100A40000E94FB064B015C016091C50170E080E0F3
:100A500090E00E944606A50194010E94610520E0F5
:100A600030E040E251E40E94D205C7FF08C0905830
:100A700006C00E94850360E070E080EC9FE720E004
:100A800030E040EF51E40E94F606181614F461E0DD
:100A900001C060E08CE00E94C00120E030E040E254
:100AA00052E4C701B6010E94CD0587FF02C061E094
:100AB00001C060E08DE00E94C0010E9464015FCF30
:100AC0005058BB27AA270E9478050C94BC060E94A8
:100AD000AE0638F00E94B50620F039F49F3F19F4B5
:100AE00026F40C94AB060EF4E095E7FB0C94A506F7
:100AF000E92F0E94CD0658F3BA17620773078407DF
:100B0000950720F079F4A6F50C94EF060EF4E09525
:100B10000B2EBA2FA02D0B01B90190010C01CA01B7
:100B2000A0011124FF27591B99F0593F50F4503E62
:100B300068F11A16F040A22F232F342F4427585F54
:100B4000F3CF469537952795A795F0405395C9F76C
:100B50007EF41F16BA0B620B730B840BBAF0915024
:100B6000A1F0FF0FBB1F661F771F881FC2F70EC0C3
:100B7000BA0F621F731F841F48F487957795679596
:100B8000B795F7959E3F08F0B0CF9395880F08F082
:100B90009927EE0F9795879508950E94810608F48E
:100BA00081E008950E94E6050C94BC060E94B506FB
:100BB00058F00E94AE0640F029F45F3F29F00C94F3
:100BC000A50651110C94F0060C94AB060E94CD06BC
:100BD00068F39923B1F3552391F3951B550BBB276C
:100BE000AA2762177307840738F09F5F5F4F220FB1
:100BF000331F441FAA1FA9F335D00E2E3AF0E0E8A8
:100C000032D091505040E695001CCAF72BD0FE2FF1
:100C100029D0660F771F881FBB1F26173707480785
:100C2000AB07B0E809F0BB0B802DBF01FF2793583D
:100C30005F4F3AF09E3F510578F00C94A5060C9456
:100C4000F0065F3FE4F3983ED4F386957795679579
:100C5000B795F7959F5FC9F7880F911D9695879572
:100C600097F90895E1E0660F771F881FBB1F621791
:100C700073078407BA0720F0621B730B840BBA0B4F
:100C8000EE1F88F7E0950895E89409C097FB3EF4BD
:100C900090958095709561957F4F8F4F9F4F9923C9
:100CA000A9F0F92F96E9BB279395F6958795779547
:100CB0006795B795F111F8CFFAF4BB0F11F460FF07
:100CC0001BC06F5F7F4F8F4F9F4F16C0882311F05F
:100CD00096E911C0772321F09EE8872F762F05C073
:100CE000662371F096E8862F70E060E02AF09A950E
:100CF000660F771F881FDAF7880F9695879597F903
:100D00000895990F0008550FAA0BE0E8FEEF16169C
:100D10001706E807F907C0F012161306E407F507EF
:100D200098F0621B730B840B950B39F40A2661F063
:100D3000232B242B252B21F408950A2609F4A14006
:100D4000A6958FEF811D811D089597F99F6780E813
:100D500070E060E008959FEF80EC089500240A940D
:100D60001616170618060906089500240A94121686
:100D70001306140605060895092E0394000C11F4B9
:100D8000882352F0BB0F40F4BF2B11F460FF04C066
:100D90006F5F7F4F8F4F9F4F089557FD9058440FBF
:100DA000551F59F05F3F71F04795880F97FB991FCA
:100DB00061F09F3F79F08795089512161306140687
:100DC000551FF2CF4695F1DF08C016161706180614
:100DD000991FF1CF86957105610508940895E894EF
:100DE000BB2766277727CB0197F908950E948106D4
:100DF00008F48FEF08950E940E070C94BC060E9421
:100E0000AE0638F00E94B50620F0952311F00C9440
:100E1000A5060C94AB0611240C94F0060E94CD0696
:100E200070F3959FC1F3950F50E0551F629FF0013D
:100E3000729FBB27F00DB11D639FAA27F00DB11D56
:100E4000AA1F649F6627B00DA11D661F829F2227DF
:100E5000B00DA11D621F739FB00DA11D621F839F66
:100E6000A00D611D221F749F3327A00D611D231F3C
:100E7000849F600D211D822F762F6A2F11249F578A
:100E800050409AF0F1F088234AF0EE0FFF1FBB1F8D
:100E9000661F771F881F91505040A9F79E3F51054C
:100EA00080F00C94A5060C94F0065F3FE4F3983EA6
:100EB000D4F3869577956795B795F795E7959F5FF6
:100EC000C1F7FE2B880F911D9695879597F9089588
:100ED000EE0FFF1F0590F491E02D099481E090E062
:0A0EE000F8940C947307F894FFCF08
:100EEA0000000000EB005B038C003801BD009B0092
:0C0EFA00AF0052656164206661696C0005
:107E0000112484B714BE81FFF0D085E080938100F7
:107E100082E08093C00088E18093C10086E0809377
:107E2000C20080E18093C4008EE0C9D0259A86E02C
:107E300020E33CEF91E0309385002093840096BBD3
:107E4000B09BFECF1D9AA8958150A9F7CC24DD24C4
:107E500088248394B5E0AB2EA1E19A2EF3E0BF2EE7
:107E6000A2D0813461F49FD0082FAFD0023811F036
:107E7000013811F484E001C083E08DD089C08234E0
:107E800011F484E103C0853419F485E0A6D080C0E4
:107E9000853579F488D0E82EFF2485D0082F10E0AE
:107EA000102F00270E291F29000F111F8ED06801E7
:107EB0006FC0863521F484E090D080E0DECF843638
:107EC00009F040C070D06FD0082F6DD080E0C81688
:107ED00080E7D80618F4F601B7BEE895C0E0D1E017
:107EE00062D089930C17E1F7F0E0CF16F0E7DF06D8
:107EF00018F0F601B7BEE89568D007B600FCFDCFD4
:107F0000A601A0E0B1E02C9130E011968C91119780
:107F100090E0982F8827822B932B1296FA010C0160
:107F200087BEE89511244E5F5F4FF1E0A038BF0790
:107F300051F7F601A7BEE89507B600FCFDCF97BE46
:107F4000E89526C08437B1F42ED02DD0F82E2BD052
:107F50003CD0F601EF2C8F010F5F1F4F84911BD097
:107F6000EA94F801C1F70894C11CD11CFA94CF0C13
:107F7000D11C0EC0853739F428D08EE10CD085E9AC
:107F80000AD08FE07ACF813511F488E018D01DD067
:107F900080E101D065CF982F8091C00085FFFCCF94
:107FA0009093C60008958091C00087FFFCCF809118
:107FB000C00084FD01C0A8958091C6000895E0E648
:107FC000F0E098E1908380830895EDDF803219F02E
:107FD00088E0F5DFFFCF84E1DECF1F93182FE3DFCA
:107FE0001150E9F7F2DF1F91089580E0E8DFEE27F6
:047FF000FF270994CA
:027FFE00040479
:0400000300007E007B
:00000001FF
