:100000000C945C000C9479000C9479000C947900A9
:100010000C9479000C9479000C9479000C9479007C
:100020000C9479000C9479000C9479000C9479006C
:100030000C9479000C9479000C9479000C9479005C
:100040000C94ED000C9479000C9479000C947900D8
:100050000C9479000C9479000C9479000C9479003C
:100060000C9479000C947900000000002400270013
:100070002A0000000000250028002B0004040404CE
:100080000404040402020202020203030303030342
:10009000010204081020408001020408102001021F
:1000A00004081020000000080002010000030407FB
:1000B000000000000000000011241FBECFEFD8E0B8
:1000C000DEBFCDBF11E0A0E0B1E0E4E1F4E002C0AA
:1000D00005900D92AC30B107D9F721E0ACE0B1E06A
:1000E00001C01D92A731B207E1F70E9437010C94BD
:1000F00008020C94000090E0FC01EC55FF4F2491A5
:10010000FC01E057FF4F3491FC01E458FF4FE491AC
:10011000EE2309F43CC0222339F1233091F038F466
:100120002130A9F0223001F584B58F7D12C027302F
:1001300091F02830A1F02430B9F4809180008F7DB7
:1001400003C0809180008F77809380000DC084B5BC
:100150008F7784BD09C08091B0008F7703C08091F4
:10016000B0008F7D8093B000F0E0EE0FFF1FEE58DF
:10017000FF4FA591B4919FB7F894611104C08C9181
:100180003095382302C0EC913E2B3C939FBF0895DD
:100190003FB7F8948091130190911401A09115013B
:1001A000B091160126B5A89B05C02F3F19F0019606
:1001B000A11DB11D3FBFBA2FA92F982F8827820FED
:1001C000911DA11DB11DBC01CD0142E0660F771F3D
:1001D000881F991F4A95D1F708951F920F920FB665
:1001E0000F9211242F933F938F939F93AF93BF93BD
:1001F00080910F0190911001A0911101B091120115
:1002000030910E0123E0230F2D3720F40196A11D1C
:10021000B11D05C026E8230F0296A11DB11D209334
:100220000E0180930F0190931001A0931101B093E0
:1002300012018091130190911401A0911501B091C8
:1002400016010196A11DB11D809313019093140115
:10025000A0931501B0931601BF91AF919F918F911B
:100260003F912F910F900FBE0F901F90189578948B
:1002700084B5826084BD84B5816084BD85B58260AB
:1002800085BD85B5816085BD80916E00816080935C
:100290006E001092810080918100826080938100C5
:1002A00080918100816080938100809180008160D5
:1002B000809380008091B10084608093B100809130
:1002C000B00081608093B00080917A008460809358
:1002D0007A0080917A00826080937A0080917A001F
:1002E000816080937A0080917A00806880937A00A0
:1002F0001092C100CCE0D1E0A2E0B1E08D9190E09D
:10030000FC01E057FF4F2491FC01E458FF4F84911A
:100310008823A1F090E0880F991FFC01E859FF4F56
:1003200045915491FC01EE58FF4F859194918FB700
:10033000F894FA019081922B90838FBFCA17DB0744
:10034000E9F620E0822E20E0922E01E010E0AA24BF
:10035000AA94BA2C92E0E92E91E0F92E60E0F70120
:1003600081917F010E947B00CE15DF05B9F7E090F7
:100370000C01F0900D01F701EE5FFE4F61E080810E
:100380000E947B0080910001909101018E0D9F1DC4
:1003900090930D0180930C018930910529F4B0925E
:1003A0000101A092000106C0892B21F410930101E4
:1003B000009300010E94C8002B013C0184EFC82E6D
:1003C000DD24D394E12CF12C0E94C800DC01CB0188
:1003D00084199509A609B709883E9340A105B1057E
:1003E00098F3F1E0CF1AD108E108F10828EE420EA7
:1003F00023E0521E611C711CC114D104E104F104FC
:1004000019F78114910409F4A5CF0E940000A2CF2E
:04041000F894FFCF8E
:0C04140001000405060708090A0B0C0D86
:00000001FF
