:020000040800F2
:1000000070060020350200082F0D00088D0C000836
:100010002D0D00082B040008191300080000000033
:10002000000000000000000000000000330D000888
:100030002D04000800000000310D0008A111000887
:100040004F0200084F0200084F0200084F0200084C
:100050004F0200084F0200084F0200084F0200083C
:100060004F0200084F0200084F0200084F0200082C
:100070004F0200084F0200084F0200084F0200081C
:100080004F0200084F0200084F0200080000000065
:100090000000000000000000000000004F02000807
:1000A0004F0200084F0200084F0200084F020008EC
:1000B0004F0200084F0200084F0200084F020008DC
:1000C0004F0200084F0200084F0200084F020008CC
:1000D0004F0200084F0200084F0200080000000015
:1000E0004F0200084F0200084F0200080000000005
:1000F0000000000000000000000000004F020008A7
:10010000000000004F0200084F0200084F020008E4
:1001100000000000000000000000000000000000DF
:100120004F0200084F0200084F0200084F0200086B
:100130004F02000800000000000000000000000066
:100140000000000000000000000000004F02000856
:100150004F0200084F0200084F0200084F0200083B
:100160004F0200084F0200080000000000000000DD
:10017000000000000000000000000000000000007F
:10018000000000004F020008000000000000000016
:100190004F02000800F002F800F03CF80AA090E8D6
:1001A000000C82448344AAF10107DA4501D100F032
:1001B00031F8AFF2090EBAE80F0013F0010F18BFC3
:1001C000FB1A43F001031847C0110000E0110000C2
:1001D000103A24BF78C878C1FAD8520724BF30C873
:1001E00030C144BF04680C60704700000023002445
:1001F00000250026103A28BF78C1FBD8520728BF37
:1002000030C148BF0B6070471FB501F0B0F81FBD8B
:1002100010B510BD00F0CFF81146FFF7F5FF01F063
:100220008CF800F0EDF803B4FFF7F2FF03BC00F028
:10023000F5F800000948804709480047FEE7FEE757
:10024000FEE7FEE7FEE7FEE7FEE7FEE7FEE7FEE786
:1002500004480549054A064B70470000291200086A
:100260009501000870000020700600207002002038
:100270007002002053EA020C00F069802DE9F04B77
:100280004FF00006002B1FBFB3FA83F503FA05F405
:1002900024FA05F65E4012BF1643B2FA82F502FA5E
:1002A00005F4C5F120051EBF22FA05FC44EA0C0442
:1002B000203556EA044C4FEA144418BF641C4FF032
:1002C00000084FF00009904271EB030C39D300296C
:1002D00019BFB1FA81F701FA07F6B0FA80F700FA10
:1002E00007F6C7F120071EBF20FA07FC46EA0C06F6
:1002F0002037B6FBF4FCA7EB0507103F07F01F0BF8
:10030000CBF120060CFA0BFB2CFA06F644BFB346E1
:100310000026202FA4BF5E464FF0000B5BEA060CC0
:1003200008BF4FF0010B19EB0B09ABFB027C48EB4C
:100330000608C01B06FB02CC0BFB03CC71EB0C01C7
:10034000C1E70B46024641464846BDE8F08B13B56F
:100350004FF000004FF00001AFF30080BDE81C40FB
:1003600070474FF0000200B5134694469646203978
:1003700022BFA0E80C50A0E80C50B1F12001BFF45E
:10038000F7AF090728BFA0E80C5048BF0CC05DF8C4
:1003900004EB890028BF40F8042B08BF704748BF12
:1003A00020F8022B11F0804F18BF00F8012B704786
:1003B000704770477047754600F02CF8AE46050050
:1003C0006946534620F00700854618B020B5FFF770
:1003D0003FFFBDE820404FF000064FF000074FF010
:1003E00000084FF0000B21F00701AC46ACE8C00953
:1003F000ACE8C009ACE8C009ACE8C0098D4670475C
:1004000010B50446AFF300802046BDE81040FFF76A
:100410000ABF000000487047100000200149182062
:10042000ABBEFEE7260002007047FEE77047000003
:1004300070B5044600F004F90546601C02D004487B
:100440000078044400F0FCF8401BA042FAD370BDD1
:10045000000000202DE9F84FDFF8B8A100220124A8
:100460000AF1040B03254FF00F090BF1040E00BF36
:100470000B6804FA02F63340B34273D10F7907F0E8
:100480000307012F01D0022F16D187684FEA4208D7
:1004900005FA08FC27EA0C07D1F80CC00CFA08FC96
:1004A0004CEA070CC0F808C04768B7430E79C6F39A
:1004B000001696403E4346600E79F643B6070DD0CF
:1004C000C768560005FA06FC27EA0C07D1F808C0F1
:1004D0000CFA06FC4CEA070CC0F80CC00E7906F0CA
:1004E0000306022E10D1D60800EB8608D8F820604B
:1004F00057074FEAD76C09FA0CF7BE430F6907FAA2
:100500000CF73743C8F8207006684FEA420C05FA2A
:100510000CF7BE430F7907F0030707FA0CF73743D0
:1005200007604E6816F4403F6DD03B4E376847F485
:1005300080473760366822F0030706F4804600964D
:10054000364E07EB060CDCF8086897073F0F09FAF0
:1005500007F826EA0806DFF8C880404503D14FF0C7
:1005600000081EE04FE0DFF8BC80404502D14FF0AC
:10057000010816E0DFF8B080404502D14FF00208D4
:100580000FE0DFF8A880404502D14FF0030808E0F3
:10059000DFF89C80404502D14FF0040801E04FF0A5
:1005A000070808FA07F848EA0608CCF80888DAF8D5
:1005B00000605746D1F804C09E435FEACC3C00D5AA
:1005C0001E433E60DBF800605F46D1F804C09E43E6
:1005D0005FEA8C3C00D51E433E60DEF80060774643
:1005E000D1F804C09E435FEACC2C00D51E433E6088
:1005F000084F0C373E68D1F804C09E435FEA8C2C4C
:1006000000D51E433E60521C102AFFF431AFBDE8F6
:10061000F88F0000003C01404438024000300140A7
:10062000000002400004024000080240000C0240AA
:10063000001002400AB1816170470904FBE7000025
:10064000014880687047000000000020024881686F
:100650000278114481607047000000200B4810B5FB
:10066000016841F400710160016841F4806101603A
:10067000016841F480710160032000F061F80F20EF
:1006800000F006F800F024F8002010BD003C024005
:1006900070B50D4D04464FF47A712878B1FBF0F037
:1006A0000A490968B1FBF0F000F0DCFA48B9102CF7
:1006B00007D200222146501E00F022F800206C6074
:1006C00070BD012070BD0000000000200C00002063
:1006D0000A4808B5016841F480410160006800F4EF
:1006E000804000900548001F016841F08051016082
:1006F000006800F08050009008BD000044380240BF
:10070000F0B40E4B1B680C46C3F30223C3F107057C
:10071000042D00D90425191D072901D2002300E06A
:10072000DB1E012606FA05F1491E214099409E4034
:10073000761E16403143F0BC00F0EFBD0CED00E03A
:10074000064900F0070208684FF6FF03184040EA28
:100750000220034A10430860704700000CED00E0DF
:100760000000FA052DE9F0470E46050065D0DFF8D8
:100770001481D8F80000F7B200F00700B04207D2A9
:1007800088F80070D8F8000000F00700B04254D19B
:1007900028683D4C810712D5400703D5206840F4F6
:1007A000E05020602878000703D5206840F46040BE
:1007B00020602068A96820F0F000084320602878B5
:1007C000C0072DD0304968680839012812D00228A6
:1007D00013D0032811D00968890700292DDA216870
:1007E00021F0030101432160FFF72AFF814641F216
:1007F000883A0EE009688903EFE709688901ECE7A8
:10080000FFF71EFFA0EB0901514502D90320BDE807
:10081000F0872068696800F00C00B0EB810FEFD121
:10082000D8F80010404601F00701B14207D907701F
:10083000006800F00700B04201D00120E7E7287807
:10084000400705D52068E96820F4E050084320609F
:100850002878000706D52068296920F4604040EA1E
:10086000C100206000F018F82168084AC1F30311A4
:10087000515CC8400649086006480068FFF708FF59
:100880000020C4E7003C024008380240781300080A
:100890000C00002004000020154810B5006810F07E
:1008A0000C02144813D04110042A0FD0082A0ED18C
:1008B0000F4C241F2268236802F03F025B0207D519
:1008C0002068C0F38810A0FB010106E0084610BDB7
:1008D0002168C1F38811A1FB00010023FFF7CAFCC6
:1008E0002168C1F30141491C4900B0FBF1F010BD82
:1008F000083802400024F4002DE9F84F04006ED0BF
:100900002078DFF84C93C007A9F104054AD009F11B
:1009100004000168C1F38101012908D00068C0F317
:10092000810002280AD1D9F80000400206D52868C3
:10093000800337D560680028E1D033E06068B0F507
:10094000803F10D0B0F5A02F286810D020F4803060
:100950002860286820F4802028606068A8B1FFF72C
:100960006FFE06460DE0286840F48030F4E740F45E
:1009700080202860F7E700BFFFF762FE801B642835
:1009800073D828688003F7D50CE0FFF759FE0646B8
:1009900005E000BFFFF754FE801B6428F0D82868EC
:1009A0008003F7D42078DFF8AC8280074FF0000A8C
:1009B0003ED5A748001D016811F00C0F08D0006853
:1009C000C0F3810002280BD1D9F80000400207D4FF
:1009D0002868800716D5E068012800D112E033E1CD
:1009E000E068B8B10120C8F80000FFF729FE06460C
:1009F00005E000BFFFF724FE801B0228C0D828684E
:100A00008007F7D52868216920F0F80040EAC10086
:100A100028600DE0C8F800A0FFF712FE064604E0CB
:100A2000FFF70EFE801B02281FD828688007F7D426
:100A30002078000722D5864F87486169703771B1E9
:100A400001210160FFF7FCFD064604E0FFF7F8FD19
:100A5000801B022809D838688007F7D50EE0C0F857
:100A600000A0FFF7EDFD064605E082E0FFF7E8FD98
:100A7000801B02287DD838688007F7D4207840078B
:100A800068D5DFF8CCB100270BF13C0BDBF8000098
:100A9000C0000BD4DBF8001041F08051CBF80010FF
:100AA000DBF80000012700F0805000906B4E3068AA
:100AB000C00510D4306840F480703060FFF7C0FD8E
:100AC000009005E0FFF7BCFD0099401A022850D8BD
:100AD0003068C005F6D55E4EA0686C3601280FD090
:100AE0000528306810D020F001003060306820F018
:100AF00004003060A068B8B1FFF7A2FD00900FE0DD
:100B0000306840F00100F4E740F004003060F7E79F
:100B1000FFF796FD0099411A41F28830814266D86C
:100B200030688007F4D50EE0FFF78AFD009007E0FB
:100B3000FFF786FD0099411A41F28830814256D86C
:100B400030688007F4D42FB1DBF8001021F0805119
:100B5000CBF80010A069C8B33D49091D0968C1F36D
:100B6000810102294AD00228504607D0C8F8600007
:100B700000E03CE0FFF764FD04463BE04746C8F870
:100B80006000FFF75DFD064605E000BFFFF758FD7A
:100B9000801B02282BD828688001F7D4D4E90701EC
:100BA0000843A16A2E4A490802EB0141626A41EA00
:100BB0008211084394F82C1040EA0161C9F8001032
:100BC00001203866FFF73CFD044606E03EE000BF2A
:100BD000FFF736FD001B022809D828688001F7D5E9
:100BE00034E000BFFFF72CFD001B022802D90320D0
:100BF000BDE8F88F28688001F4D427E00128F7D0F9
:100C0000D9F80000E26900F4800191421CD1226A07
:100C100000F03F01914217D147F6C071626A01406E
:100C2000B1EB821F10D1A26A4FF0FF3300F44031C4
:100C300003EB5202B1EB024F06D194F82C1000F0F6
:100C40007060B0EB016F01D00120D1E70020CFE749
:100C50000438024000004742800E474200700040C6
:100C60000000FFFF10B5401EB0F1807F01D30120CE
:100C700010BD4FF0E02460610F21601700F04DFBC4
:100C80000020A06107202061002010BDFEE70000C9
:100C90002DE9F04387B014216846FFF762FB204836
:100CA0000024016841F010010160016801F01001A9
:100CB0000591016841F080010160016801F0800147
:100CC0000591016841F0080101600068DFF8548077
:100CD00000F00800059000220F214046FFF7AAFC13
:100CE000DFF844904FF6FF77002239464846FFF779
:100CF000A1FC0F2001250226CDE90005CDE9024621
:100D000069464046FFF7A6FB00970396CDE90154DC
:100D100069464846FFF79EFB07B0BDE8F083000038
:100D20003038024000100240000C0240FEE7FEE7AF
:100D30007047704710B5344C012211462046FFF72A
:100D400079FC012202212046FFF774FC01220421D4
:100D50002046FFF76FFC012208212046FFF76AFCBE
:100D6000012210212046FFF765FC012220212046A8
:100D7000FFF760FC012240212046FFF75BFC0122C7
:100D800080212046FFF756FC012211022046FFF782
:100D900051FC012251022046FFF74CFC0122910236
:100DA0002046FFF747FC0122D1022046FFF742FC14
:100DB000012211032046FFF73DFC0122510320468A
:100DC000FFF738FC012291032046FFF733FC012294
:100DD000D1032046FFF72EFC0C4C01221146204681
:100DE000FFF728FC012202212046FFF723FC012205
:100DF00004212046FFF71EFC20460122BDE81040DA
:100E00000821FFF717BC0000000C02400010024050
:100E100010B500F011FA6420FFF70AFB514C0122D3
:100E200011462046FFF706FC6420FFF701FB012274
:100E300002212046FFF7FEFB6420FFF7F9FA0122AA
:100E400004212046FFF7F6FB6420FFF7F1FA0122A8
:100E500008212046FFF7EEFB6420FFF7E9FA0122A4
:100E600010212046FFF7E6FB6420FFF7E1FA01229C
:100E700020212046FFF7DEFB6420FFF7D9FA01228C
:100E800040212046FFF7D6FB6420FFF7D1FA01226C
:100E900080212046FFF7CEFB6420FFF7C9FA01222C
:100EA00011022046FFF7C6FB6420FFF7C1FA0122BA
:100EB00051022046FFF7BEFB6420FFF7B9FA01227A
:100EC00091022046FFF7B6FB6420FFF7B1FA01223A
:100ED000D1022046FFF7AEFB6420FFF7A9FA0122FA
:100EE00011032046FFF7A6FB6420FFF7A1FA0122B9
:100EF00051032046FFF79EFB6420FFF799FA012279
:100F000091032046FFF796FB6420FFF791FA012238
:100F1000D1032046FFF78EFB6420FFF789FA124CBD
:100F2000012211462046FFF785FB6420FFF780FA77
:100F3000012202212046FFF77DFB6420FFF778FAAB
:100F4000012204212046FFF775FB6420FFF770FAA9
:100F5000012208212046FFF76DFBBDE81040642008
:100F6000FFF766BA000C02400010024070B500F0B6
:100F700063F96420FFF75CFA874C01221146204692
:100F8000FFF758FB6420FFF753FA002201212046A7
:100F9000FFF750FB012202212046FFF74BFB6420A4
:100FA000FFF746FA002202212046FFF743FB012209
:100FB00004212046FFF73EFB6420FFF739FA0022A8
:100FC00004212046FFF736FB012208212046FFF7C7
:100FD00031FB6420FFF72CFA002208212046FFF79E
:100FE00029FB012210212046FFF724FB6420FFF794
:100FF0001FFA002210212046FFF71CFB01222021AE
:101000002046FFF717FB6420FFF712FA0022202189
:101010002046FFF70FFB012240212046FFF70AFB85
:101020006420FFF705FA002240212046FFF702FB6B
:10103000012280212046FFF7FDFA6420FFF7F8F92E
:10104000002280212046FFF7F5FA012215022946E9
:101050002046FFF7EFFA6420FFF7EAF9002229465D
:101060002046FFF7E7FA0122550229462046FFF7FE
:10107000E1FA6420FFF7DCF9002229462046FFF759
:10108000D9FA0122950229462046FFF7D3FA6420B7
:10109000FFF7CEF9002229462046FFF7CBFA0122BE
:1010A000D50229462046FFF7C5FA6420FFF7C0F9AC
:1010B000002229462046FFF7BDFA012215032946E2
:1010C0002046FFF7B7FA6420FFF7B2F9002229465D
:1010D0002046FFF7AFFA0122550329462046FFF7C5
:1010E000A9FA6420FFF7A4F9002229462046FFF759
:1010F000A1FA0122950329462046FFF79BFA6420B6
:10110000FFF796F9002229462046FFF793FA0122BD
:10111000D50329462046FFF78DFA6420FFF788F9AA
:10112000002229462046FFF785FA1C4C0122114671
:101130002046FFF77FFA6420FFF77AF900220121A9
:101140002046FFF777FA012202212046FFF772FAC4
:101150006420FFF76DF9002202212046FFF76AFAAA
:10116000012204212046FFF765FA6420FFF760F9A9
:10117000002204212046FFF75DFA012208212046C3
:10118000FFF758FA6420FFF753F92046BDE8704096
:1011900000220821FFF74EBA000C02400010024066
:1011A000FFF754BA30B593B030216846FFF7D9F84D
:1011B00014210CA8FFF7D5F819480024016841F064
:1011C00080510160006800F080501190154801685E
:1011D00021F4404141F4004101600068012500F420
:1011E0004040119028040694CDE900506846FFF76E
:1011F00083FB08B172B6FEE70F20CDE90C054FF472
:10120000A050CDE90E404FF48050109000210CA862
:10121000FFF7A8FA002801D072B6FEE713B030BD80
:1012200040380240007000400248016841F47001FB
:101230000160704788ED00E010B5354C00220121B7
:101240002046FFF7F7F9002202212046FFF7F2F9C6
:10125000002204212046FFF7EDF900220821204654
:10126000FFF7E8F9002210212046FFF7E3F90022FA
:1012700020212046FFF7DEF9002240212046FFF71B
:10128000D9F9002280212046FFF7D4F90022A115C8
:101290002046FFF7CFF9002261152046FFF7CAF973
:1012A000002221152046FFF7C5F90022E11420464F
:1012B000FFF7C0F90022A1142046FFF7BBF9002276
:1012C0004FF400512046FFF7B5F900224FF480415A
:1012D0002046FFF7AFF900224FF400412046FFF708
:1012E000A9F90C4C002201212046FFF7A3F90022A6
:1012F00002212046FFF79EF9002204212046FFF735
:1013000099F920460022BDE810400821FFF792B964
:10131000000C024000100240FEE70907090E0028F9
:1013200004DB00F1E02080F80014704700F00F00AB
:1013300000F1E02080F8141D7047FFF78FF9FFF7E8
:1013400031FFFFF7A5FC4FF47A74FFF7F3FC20465A
:10135000FFF76EF8FFF770FF2046FFF769F8FFF719
:1013600057FD2046FFF764F8FFF700FEEDE74FF06A
:101370004070E1EE100A704700000000000000001D
:101380000102030406070809A81300080000002052
:1013900010000000D0010008B81300081000002061
:1013A00060060000EC0100080100000010000000D1
:0813B000000000000024F4001D
:040000050800019559
:00000001FF
