:100000000C945C000C9442020C941B020C9479003A
:100010000C9479000C9479000C9479000C9479007C
:100020000C9479000C9479000C9479000C9479006C
:100030000C9479000C9479000C9479000C9479005C
:100040000C94D1010C9479000C9479000C947900F3
:100050000C9479000C9479000C9479000C9479003C
:100060000C9479000C947900000000080002010053
:100070000003040700000000000000000000000072
:10008000250028002B0000000000240027002A0083
:10009000040404040404040402020202020203032E
:1000A0000303030301020408102040800102040836
:1000B000102001020408102011241FBECFEFD8E049
:1000C000DEBFCDBF11E0A0E0B1E0E8E2F7E002C0A2
:1000D00005900D92A430B107D9F721E0A4E0B1E07A
:1000E00001C01D92AD30B207E1F70E9469020C9485
:1000F00092030C94000090E0FC01EC55FF4F24911A
:1001000080579F4FFC018491882399F090E0880FDD
:10011000991FFC01EA57FF4FA591B491FC01E458E7
:10012000FF4F859194918FB7F894EC91E22BEC936B
:100130008FBF089590E0FC01E859FF4F2491FC0126
:10014000EC55FF4F3491FC01E057FF4FE491EE2353
:10015000C9F0222339F0233001F1A8F4213019F13C
:10016000223029F1F0E0EE0FFF1FE458FF4FA59178
:10017000B4918FB7F894EC91611126C030953E236D
:100180003C938FBF08952730A9F02830C9F0243060
:1001900049F7809180008F7D03C0809180008F7728
:1001A00080938000DFCF84B58F7784BDDBCF84B5AB
:1001B0008F7DFBCF8091B0008F778093B000D2CF3E
:1001C0008091B0008F7DF9CF3E2BDACF60E08BE0DD
:1001D0000E949A0060E08AE00E949A0060E085E058
:1001E0000E949A0060E084E00C949A001F93CF93E1
:1001F000DF93182FEB010E947B00209739F460E019
:10020000812FDF91CF911F910C949A00CF3FD105A0
:1002100011F461E0F5CFE12FF0E0E859FF4FE491F0
:10022000E33031F140F4E130B1F0E230E1F0C038D8
:10023000D1057CF7E4CFE73029F1E83059F1E4301B
:10024000B1F780918000806280938000D0938B0012
:10025000C0938A0004C084B5806884BDC7BDDF91A7
:10026000CF911F91089584B5806284BDC8BDF7CF3A
:1002700080918000806880938000D0938900C09333
:100280008800EDCF8091B00080688093B000C0936B
:10029000B300E5CF8091B00080628093B000C0933E
:1002A000B400DDCF3FB7F8948091090190910A0125
:1002B000A0910B01B0910C0126B5A89B05C02F3F62
:1002C00019F00196A11DB11D3FBFBA2FA92F982F7C
:1002D0008827BC01CD01620F711D811D911D42E077
:1002E000660F771F881F991F4A95D1F708958F923F
:1002F0009F92AF92BF92CF92DF92EF92FF924B010B
:100300005C010E9452016B017C010E9452016C1938
:100310007D098E099F09683E734081059105A8F308
:1003200021E0821A9108A108B10888EEC80E83E086
:10033000D81EE11CF11C81149104A104B10429F719
:10034000FF90EF90DF90CF90BF90AF909F908F90F5
:100350000895CF93DF9360E08BE00E949A0061E004
:100360008AE00E949A0060E085E00E949A0061E0C5
:1003700084E00E949A00CFEFD0E0BE0189E00E94A5
:10038000F600BE0186E00E94F6006AE070E080E0C0
:1003900090E00E947701219780F7DF91CF91089537
:1003A00008951F920F920FB60F9211242F933F932F
:1003B0008F939F93AF93BF93809105019091060116
:1003C000A0910701B09108013091040123E0230FAF
:1003D0002D3758F50196A11DB11D2093040180937E
:1003E000050190930601A0930701B0930801809145
:1003F000090190910A01A0910B01B0910C010196A5
:10040000A11DB11D8093090190930A01A0930B01D6
:10041000B0930C01BF91AF919F918F913F912F911C
:100420000F900FBE0F901F90189526E8230F02968D
:10043000A11DB11DD2CF1F920F920FB60F921124A2
:100440002F933F934F935F936F937F938F939F93DC
:10045000AF93BF93EF93FF93E0910201F0910301FB
:100460000995FF91EF91BF91AF919F918F917F91EE
:100470006F915F914F913F912F910F900FBE0F9011
:100480001F9018951F920F920FB60F9211242F9361
:100490003F934F935F936F937F938F939F93AF930C
:1004A000BF93EF93FF93E0910001F0910101099553
:1004B000FF91EF91BF91AF919F918F917F916F913C
:1004C0005F914F913F912F910F900FBE0F901F9012
:1004D0001895789484B5826084BD84B5816084BDAC
:1004E00085B5826085BD85B5816085BD80916E00D2
:1004F000816080936E001092810080918100826003
:10050000809381008091810081608093810080913F
:1005100080008160809380008091B100846080932E
:10052000B1008091B00081608093B00080917A002A
:10053000846080937A0080917A00826080937A0050
:1005400080917A00816080937A0080917A0080683F
:1005500080937A001092C10089E00E947B008BE0BA
:100560000E947B008AE00E947B0086E00E947B0064
:1005700085E00E947B0084E00E947B0061E082E0D5
:100580000E949A0086EE90E0909301018093000112
:10059000809169008C7F816080936900E89A61E0B6
:1005A00083E00E949A0089EA91E09093030180938E
:1005B000020180916900837F846080936900E99AD9
:1005C00060E08BE00E949A0060E08AE00E949A005E
:1005D00060E085E00E949A0060E084E00E949A005A
:1005E00000E010E06FEF70E089E00E94F6006FEF2E
:1005F00070E086E00E94F60061E08BE00E949A00C5
:1006000060E08AE00E949A0061E085E00E949A0022
:1006100060E084E00E949A0060ED77E080E090E086
:100620000E94770160E08BE00E949A0061E08AE01E
:100630000E949A0060E085E00E949A0061E084E0F8
:100640000E949A0060ED77E080E090E00E947701E0
:1006500060E08BE00E949A0060E08AE00E949A00CD
:1006600060E085E00E949A0060E084E00E949A00C9
:1006700068EE73E080E090E00E94770160E08BE03C
:100680000E949A0061E08AE00E949A0060E085E0A2
:100690000E949A0061E084E00E949A00D0E0C0E0ED
:1006A000BE0189E00E94F600BE0186E00E94F600CD
:1006B0006AE070E080E090E00E9477012196C11529
:1006C00081E0D80769F7CFEFD0E0BE0189E00E9452
:1006D000F600BE0186E00E94F6006AE070E080E06D
:1006E00090E00E947701219780F760E08BE00E9404
:1006F0009A0060E08AE00E949A0060E085E00E9433
:100700009A0060E084E00E949A0068EE73E080E066
:1007100090E00E9477010115110509F463CF0E9452
:08072000000060CFF894FFCF48
:04072800D001D0012B
:00000001FF
