:020000040800F2
:1000000020070020350200080F1700088516000899
:100010000D170008ED050008AD17000800000000EE
:10002000000000000000000000000000131700089E
:10003000A1060008000000001117000815170008AD
:100040004F0200084F0200084F0200084F0200084C
:100050004F0200084F0200084F0200084F0200083C
:100060004F0200084F0200084F0200084F0200082C
:100070004F0200084F0200084F0200084F0200081C
:100080004F0200084F020008B904000800000000F9
:100090000000000000000000000000004F02000807
:1000A0004F0200084F0200084F0200084F020008EC
:1000B0004F0200084F0200084F0200084F020008DC
:1000C0004F0200084F0200084F0200084F020008CC
:1000D0004F0200084F0200084F0200080000000015
:1000E0004F0200084F0200084F0200080000000005
:1000F0000000000000000000000000004F020008A7
:10010000000000004F0200084F0200084F020008E4
:1001100000000000000000000000000000000000DF
:10012000F10500084F0200084F0200084F020008C6
:100130004F02000800000000000000000000000066
:100140000000000000000000000000004F02000856
:100150004F0200084F0200084F0200084F0200083B
:100160004F0200084F0200080000000000000000DD
:10017000000000000000000000000000000000007F
:10018000000000004F020008000000000000000016
:100190004F02000800F002F800F03CF80AA090E8D6
:1001A000000C82448344AAF10107DA4501D100F032
:1001B00031F8AFF2090EBAE80F0013F0010F18BFC3
:1001C000FB1A43F00103184794160000B416000010
:1001D000103A24BF78C878C1FAD8520724BF30C873
:1001E00030C144BF04680C60704700000023002445
:1001F00000250026103A28BF78C1FBD8520728BF37
:1002000030C148BF0B6070471FB501F015FB1FBD23
:1002100010B510BD00F0CFF81146FFF7F5FF01F063
:10022000D7FA00F0EDF803B4FFF7F2FF03BC00F0DB
:10023000F5F800000948804709480047FEE7FEE757
:10024000FEE7FEE7FEE7FEE7FEE7FEE7FEE7FEE786
:1002500004480549054A064B704700009D170008F1
:100260009501000820010020200700202003002025
:100270002003002053EA020C00F069802DE9F04BC6
:100280004FF00006002B1FBFB3FA83F503FA05F405
:1002900024FA05F65E4012BF1643B2FA82F502FA5E
:1002A00005F4C5F120051EBF22FA05FC44EA0C0442
:1002B000203556EA044C4FEA144418BF641C4FF032
:1002C00000084FF00009904271EB030C39D300296C
:1002D00019BFB1FA81F701FA07F6B0FA80F700FA10
:1002E00007F6C7F120071EBF20FA07FC46EA0C06F6
:1002F0002037B6FBF4FCA7EB0507103F07F01F0BF8
:10030000CBF120060CFA0BFB2CFA06F644BFB346E1
:100310000026202FA4BF5E464FF0000B5BEA060CC0
:1003200008BF4FF0010B19EB0B09ABFB027C48EB4C
:100330000608C01B06FB02CC0BFB03CC71EB0C01C7
:10034000C1E70B46024641464846BDE8F08B13B56F
:100350004FF000004FF00001AFF30080BDE81C40FB
:1003600070474FF0000200B5134694469646203978
:1003700022BFA0E80C50A0E80C50B1F12001BFF45E
:10038000F7AF090728BFA0E80C5048BF0CC05DF8C4
:1003900004EB890028BF40F8042B08BF704748BF12
:1003A00020F8022B11F0804F18BF00F8012B704786
:1003B000704770477047754600F02CF8AE46050050
:1003C0006946534620F00700854618B020B5FFF770
:1003D0003FFFBDE820404FF000064FF000074FF010
:1003E00000084FF0000B21F00701AC46ACE8C00953
:1003F000ACE8C009ACE8C009ACE8C0098D4670475C
:1004000010B50446AFF300802046BDE81040FFF76A
:100410000ABF000000487047C000002001491820B2
:10042000ABBEFEE726000200704710B50146806BA8
:10043000026C12F0500F05D0026CD20626D500F0E7
:10044000DBF910BD016C41F40071016401688A6838
:1004500012F0405F17D1027EAAB9CA6A12F4700F77
:1004600002D08A6852050ED44A6822F020024A60FF
:10047000016C21F480710164016CC90403D4016C26
:1004800041F00101016400F0B5F910BD806BC26C50
:10049000BDE810400846104710B5806B402101644C
:1004A000416C41F00401416400F0A6F910BD10B5A3
:1004B000806B00F0A0F910BD014800F09EB900006B
:1004C00018000020464910B54A6822F440324A60BC
:1004D0004A6843681A434A6001684A6822F4807295
:1004E0004A6001684A68036942EA03224A60016877
:1004F0004A6822F040724A6001684A6883681A4379
:100500004A6001688A6822F400628A6001688A6829
:10051000C3681A438A60816A6FF07062D1420168D1
:100520008A6822F070628A6001688A680CD0836AE7
:100530001A438A6001688A6822F040528A60016822
:100540008A68C36A1A4301E022F040528A60016857
:100550008A6822F002028A6001688A68037E42EAA1
:1005600043028A6090F82010002901684A680FD081
:1005700042F400624A6001684A6822F460424A60BC
:1005800001684A68174C436A04EB43331A4301E09D
:1005900022F400624A600168CA6A22F47002CA62E8
:1005A0000168CA6A838B104C04EB03531A43CA6276
:1005B00001688A6822F400728A6001688A6890F88B
:1005C000303042EA43228A6001688A6822F48062FD
:1005D0008A6001688A68406942EA8020886010BDAC
:1005E0000023014000E0FFFF0000F0FFFEE70000F5
:1005F000014800F0B1BA0000600000200168182333
:10060000CAB2103AB2FBF3F2054B6FF30901032AA9
:100610009B5CC36500D9091D8165084670470000D1
:100620004218000810B5014600208B698A6A4FF015
:10063000C07453B1B3F5005F15D072B1012A0CD06C
:10064000022A0AD0032A09D104E01AB1012A06D0ED
:10065000022A03D1C96AC90100D5012010BDC96AA7
:10066000A142FAD010BD002AF7D0012AF2D0022A06
:10067000F3D0032AF3D010BD30B50468256825F403
:1006800080252560046863608368402B036803D07D
:1006900099600068C26030BD9A600068C16030BD7A
:1006A000704772B6FEE7704778B50024009490F862
:1006B0003C20012A19D0012280F83C200A68072337
:1006C0000568092A13D9EE680A3A02EB4202934000
:1006D0009E43EE600B788A680A3B03EB43039A4023
:1006E0000368DD682A43DA6010E0022078BD2E69D5
:1006F00002EB420293409E432E610B788A6803EB23
:1007000043039A4003681D692A431A614A681F23FC
:10071000072A13D205686E6B521E02EB82029340C9
:100720009E436E630B790A885B1E92B203EB8303D0
:100730009A4003685D6B2A435A6327E005680D2AD7
:1007400012D22E6BD21F02EB820293409E432E6385
:100750000B790A88DB1F92B203EB83039A4003688C
:100760001D6B2A431A6311E0EE6A0D3A02EB820216
:1007700093409E43EE620B790A880D3B92B203EBE5
:1007800083039A400368DD6A2A43DA62164B0568E0
:10079000144A9D4206D10D68122D03D1556845F4C7
:1007A0008005556005689D4218D10B68102B01D05B
:1007B000112B13D1536843F40003536009681029C7
:1007C0000CD10A490A4A0968B1FBF2F101EB810137
:1007D000490000E0491E00910029FBD180F83C400F
:1007E000002078BD002301400020014014000020BB
:1007F00040420F0070477047704770B5044600686C
:1008000001684268C1F34001C2F3401251B34AB3D8
:10081000216CC90603D4216C41F400712164816804
:1008200011F0405F17D1217EA9B9C16A11F4700F90
:1008300002D0816849050ED4416821F02001416051
:10084000206C20F480702064206CC00403D4206CE1
:1008500040F0010020642046FFF7CCFF21686FF0D4
:1008600012000860206801684268C1F38001C2F389
:10087000C01289B382B3216CC90603D4216C41F440
:1008800000512164816811F4401F1ED1816B11F465
:10089000401F02D08168490517D44168490514D426
:1008A000816811F0405F10D1217E71B9416821F05B
:1008B00080014160206C20F480502064206CC005D1
:1008C00003D4206C40F0010020642046FFF7EBFECB
:1008D00021686FF00C00086020680168426811F020
:1008E000010FC2F380120ED06AB10068C0070AD0AF
:1008F000206C40F480302064204600F046F82168E7
:100900006FF001000860206801684268C1F340117F
:10091000C2F3806200290DD0002A0BD0616C41F037
:10092000020161646FF0200505602046FFF764FF57
:100930002068056070BD70B504004FF0000503D05D
:10094000206C002610B107E0012070BD204600F0A9
:100950001DF8666484F83C60206CC00610D4206CDE
:1009600020F4885040F0020020642046FFF7AAFDE2
:100970006664206C20F0020040F00100206400E07A
:10098000012584F83C60284670BD704770B586B07C
:10099000064614216846FFF7E4FC21493068884286
:1009A0003CD120480025016841F480710160006855
:1009B00000F4807005901B481438016841F0010173
:1009C00001600068694600F0010005900720009072
:1009D0000320CDE90105144800F030FA144C134807
:1009E000C4E900050015A560C4E90350400060613A
:1009F0008000A0614011C4E907052046656200F04F
:100A00007BF908B1FFF74DFEB463002211461220B6
:100A1000A66300F071FB122000F060FB06B070BD11
:100A200000200140443802400000024010640240AF
:100A300060000020F8B5044600200E46009094F8AF
:100A40003C10012907D0012184F83C1021688B68F3
:100A5000DB0702D011E00220F8BD8B6843F00103F0
:100A60008B603649364B0968B1FBF3F101EB41016C
:100A700000E0491E00910029FBD121688B68DB054D
:100A800003D58B6823F480738B6021688B68DB0748
:100A900049D0236C40F20165AB4343F48073236477
:100AA0004968490505D5216C21F4005141F4805174
:100AB0002164216CC90404D5616C21F006016164D4
:100AC00000E0606484F83C00A16B1F481D4DC863C2
:100AD000A16B1E480864A16B1D48C86421686FF0B3
:100AE000220008602068416841F080614160206810
:100AF000816841F4807181602168134632464C312F
:100B0000A06B00F063F96868C006206802D0114944
:100B1000884210D1816811F0405F0CD1816841F0AA
:100B20008041816007E0206C40F010002064606C20
:100B300040F0010060640020F8BD000014000020B7
:100B400040420F00002301402B040008AF040008BE
:100B500099040008002001402DE9F84304464FF0B5
:100B60000009CDF8009063484FF41651A56D006858
:100B7000B0FBF1F72E6894F85C10082000FA01F140
:100B800031420FD021680A6852070BD50A6822F05B
:100B900004020A6094F85C108840A860606D40F020
:100BA0000100606594F85C104FF0010808FA01F04C
:100BB000304208D021684969090604D5A860606DF3
:100BC00040F00200606594F85C10042088403042D8
:100BD00008D021680968890704D5A860606D40F0D5
:100BE0000400606594F85C1010208840304218D0F2
:100BF00021680968090714D5A860206801684903BD
:100C000004D50068000308D5A16C07E00168C90598
:100C100003D4016821F008010160216C09B120466C
:100C2000884794F85C1020208840304231D02168F9
:100C30000968C9062DD5A86094F8350005282068F4
:100C4000016806D0490347D5006800031DD4616CD4
:100C50001CE021F0160101602068416921F080014B
:100C60004161206C08B9A06C20B12068016821F0B6
:100C70000801016094F85C103F208840A86084F867
:100C8000358084F83490216D1FE0E16B09B1204676
:100C90008847606D00282BD0606DC00714D00520F8
:100CA00084F835002068016821F001010160009896
:100CB000401C0090B84203D820680068C007F6D1F5
:100CC00084F8358084F83490E16C002910D001B0AC
:100CD0002046BDE8F04308470168C905D5D401683E
:100CE00021F01001016084F8358084F83490CCE75D
:100CF000BDE8F883140000202DE9F041044600F01F
:100D00008DF906465CB1022084F83500002584F890
:100D100034502068016821F0010101600DE00120DC
:100D2000BDE8F08100F07AF9801B052805D9202064
:100D30006065032084F83500F2E720680068C0078A
:100D4000F0D12268116820480140D4E9010318431A
:100D5000D4E903363343184363691843A36918433E
:100D6000E3691843236A18430843616A042903D1DD
:100D7000D4E90B1319430843106020684069666A80
:100D800020F0070130460E43012704280CD1A06A49
:100D90000643E06A40B12046FFF744FC20B1402002
:100DA000606584F83570BAE7206846612046FFF731
:100DB00025FC94F85C203F2191408160656584F8B2
:100DC00035700020ACE700003F8010F02DE9F041C5
:100DD0000446866D90F83400002501280DD00120CE
:100DE00084F8340094F835700020012F07D084F87F
:100DF000340002252846BDE8F0810220FBE70227E7
:100E000084F8357060652046FFF736FC94F85C1076
:100E10003F208840B0602068016841F01601016001
:100E2000206C20B12068016841F008010160206851
:100E3000016841F001010160DCE700002DE9F84F95
:100E4000DFF8B8A1002201240AF1040B03254FF0BA
:100E50000F090BF1040E00BF0B6804FA02F63340D1
:100E6000B34273D10F7907F00307012F01D0022F8E
:100E700016D187684FEA420805FA08FC27EA0C07F2
:100E8000D1F80CC00CFA08FC4CEA070CC0F808C0FA
:100E90004768B7430E79C6F3001696403E43466056
:100EA0000E79F643B6070DD0C768560005FA06FC62
:100EB00027EA0C07D1F808C00CFA06FC4CEA070C2C
:100EC000C0F80CC00E7906F00306022E10D1D60829
:100ED00000EB8608D8F8206057074FEAD76C09FA6C
:100EE0000CF7BE430F6907FA0CF73743C8F82070B8
:100EF00006684FEA420C05FA0CF7BE430F7907F07B
:100F0000030707FA0CF7374307604E6816F4403FB3
:100F10006DD03B4E376847F480473760366822F023
:100F2000030706F480460096364E07EB060CDCF805
:100F3000086897073F0F09FA07F826EA0806DFF85E
:100F4000C880404503D14FF000081EE04FE0DFF8B5
:100F5000BC80404502D14FF0010816E0DFF8B080B8
:100F6000404502D14FF002080FE0DFF8A88040456D
:100F700002D14FF0030808E0DFF89C80404502D121
:100F80004FF0040801E04FF0070808FA07F848EAB4
:100F90000608CCF80888DAF800605746D1F804C093
:100FA0009E435FEACC3C00D51E433E60DBF8006008
:100FB0005F46D1F804C09E435FEA8C3C00D51E43D7
:100FC0003E60DEF800607746D1F804C09E435FEAD9
:100FD000CC2C00D51E433E60084F0C373E68D1F83C
:100FE00004C09E435FEA8C2C00D51E433E60521C19
:100FF000102AFFF431AFBDE8F88F0000003C01403B
:101000004438024000300140000002400004024029
:1010100000080240000C02400010024001488068B5
:1010200070470000080000200248816802781144DF
:1010300081607047080000200B4810B5016841F43A
:1010400000710160016841F480610160016841F450
:1010500080710160032000F06FF80F2000F006F8A7
:1010600000F024F8002010BD003C024070B50D4D8A
:1010700004464FF47A712878B1FBF0F00A49096808
:10108000B1FBF0F000F0EAFA48B9102C07D20022C8
:101090002146501E00F030F800206C6070BD012029
:1010A00070BD000008000020140000200A4808B5A8
:1010B000016841F480410160006800F480400090C4
:1010C0000548001F016841F080510160006800F090
:1010D0008050009008BD000044380240002809DB21
:1010E00000F01F02012191404009800000F1E02042
:1010F000C0F8001170470000F0B40E4B1B680C469E
:10110000C3F30223C3F10705042D00D90425191DDB
:10111000072901D2002300E0DB1E012606FA05F1B3
:10112000491E214099409E40761E16403143F0BC36
:1011300000F03DBB0CED00E0064900F00702086836
:101140004FF6FF03184040EA0220034A10430860AC
:10115000704700000CED00E00000FA052DE9F047B3
:101160000E46050065D0DFF81481D8F80000F7B20C
:1011700000F00700B04207D288F80070D8F80000ED
:1011800000F00700B04254D128683D4C810712D5C9
:10119000400703D5206840F4E0502060287800071D
:1011A00003D5206840F4604020602068A96820F0E2
:1011B000F000084320602878C0072DD030496868C7
:1011C0000839012812D0022813D0032811D0096849
:1011D000890700292DDA216821F0030101432160EC
:1011E000FFF71CFF814641F2883A0EE00968890347
:1011F000EFE709688901ECE7FFF710FFA0EB0901B1
:10120000514502D90320BDE8F0872068696800F0E5
:101210000C00B0EB810FEFD1D8F80010404601F080
:101220000701B14207D90770006800F00700B0421B
:1012300001D00120E7E72878400705D52068E96854
:1012400020F4E050084320602878000706D5206885
:10125000296920F4604040EAC100206000F018F8DD
:101260002168084AC1F30311515CC840064908606F
:1012700006480068FFF7FAFE0020C4E7003C024081
:10128000083802404A180008140000200C00002012
:10129000154810B5006810F00C02144813D0411026
:1012A000042A0FD0082A0ED10F4C241F226823686D
:1012B00002F03F025B0207D52068C0F38810A0FB54
:1012C000010106E0084610BD2168C1F38811A1FBA9
:1012D00000010023FEF7CEFF2168C1F30141491C44
:1012E0004900B0FBF1F010BD083802400024F400C2
:1012F0002DE9F84F04006ED02078DFF84C93C0073A
:10130000A9F104054AD009F104000168C1F3810183
:10131000012908D00068C0F3810002280AD1D9F859
:101320000000400206D52868800337D56068002891
:10133000E1D033E06068B0F5803F10D0B0F5A02F69
:10134000286810D020F480302860286820F480209D
:1013500028606068A8B1FFF761FE06460DE02868C6
:1013600040F48030F4E740F480202860F7E700BFC5
:10137000FFF754FE801B642873D828688003F7D5D4
:101380000CE0FFF74BFE064605E000BFFFF746FE08
:10139000801B6428F0D828688003F7D42078DFF811
:1013A000AC8280074FF0000A3ED5A748001D0168B7
:1013B00011F00C0F08D00068C0F3810002280BD197
:1013C000D9F80000400207D42868800716D5E068E5
:1013D000012800D112E033E1E068B8B10120C8F87B
:1013E0000000FFF71BFE064605E000BFFFF716FEF4
:1013F000801B0228C0D828688007F7D52868216993
:1014000020F0F80040EAC10028600DE0C8F800A014
:10141000FFF704FE064604E0FFF700FE801B0228EB
:101420001FD828688007F7D42078000722D5864F78
:1014300087486169703771B101210160FFF7EEFDE6
:10144000064604E0FFF7EAFD801B022809D8386849
:101450008007F7D50EE0C0F800A0FFF7DFFD0646D5
:1014600005E082E0FFF7DAFD801B02287DD83868AE
:101470008007F7D42078400768D5DFF8CCB1002783
:101480000BF13C0BDBF80000C0000BD4DBF80010C4
:1014900041F08051CBF80010DBF80000012700F08C
:1014A000805000906B4E3068C00510D4306840F416
:1014B00080703060FFF7B2FD009005E0FFF7AEFDF1
:1014C0000099401A022850D83068C005F6D55E4E03
:1014D000A0686C3601280FD00528306810D020F0A5
:1014E00001003060306820F004003060A068B8B1BE
:1014F000FFF794FD00900FE0306840F00100F4E742
:1015000040F004003060F7E7FFF788FD0099411ACA
:1015100041F28830814266D830688007F4D50EE009
:10152000FFF77CFD009007E0FFF778FD0099411A76
:1015300041F28830814256D830688007F4D42FB108
:10154000DBF8001021F08051CBF80010A069C8B37F
:101550003D49091D0968C1F3810102294AD00228C9
:10156000504607D0C8F8600000E03CE0FFF756FDA9
:1015700004463BE04746C8F86000FFF74FFD0646CB
:1015800005E000BFFFF74AFD801B02282BD8286822
:101590008001F7D4D4E907010843A16A2E4A49081B
:1015A00002EB0141626A41EA8211084394F82C106F
:1015B00040EA0161C9F8001001203866FFF72EFDEE
:1015C000044606E03EE000BFFFF728FD001B0228AE
:1015D00009D828688001F7D534E000BFFFF71EFD69
:1015E000001B022802D90320BDE8F88F286880017B
:1015F000F4D427E00128F7D0D9F80000E26900F41C
:10160000800191421CD1226A00F03F01914217D122
:1016100047F6C071626A0140B1EB821F10D1A26A25
:101620004FF0FF3300F4403103EB5202B1EB024FB5
:1016300006D194F82C1000F07060B0EB016F01D06F
:101640000120D1E70020CFE70438024000004742E4
:10165000800E4742007000400000FFFF10B5401EA2
:10166000B0F1807F01D3012010BD4FF0E024606114
:101670000F21601700F09BF80020A0610720206177
:10168000002010BDFEE700007FB500241D48009437
:10169000019402941A490394C0E9001401250561DC
:1016A0008460057680F820401749C0E90A140326B3
:1016B000C661C46080F830504561FFF73CF908B15D
:1016C00072B6FEE7CDE9004569460E480294FEF782
:1016D000EBFF08B172B6FEE70220019069460948A7
:1016E000FEF7E2FF08B172B6FEE7694605480196CB
:1016F000FEF7DAFF002801D072B6FEE77FBD0000DA
:1017000000200140180000200100000FFEE7FEE766
:1017100070477047FFF788BC30B593B030216846FA
:10172000FEF71FFE14210CA8FEF71BFE194800242B
:10173000016841F080510160006800F08050119014
:101740001548016821F4404141F4004101600068FE
:10175000012500F44040119028040694CDE9005082
:101760006846FFF7C5FD08B172B6FEE70F20CDE968
:101770000C054FF4A050CDE90E404FF4805010906E
:1017800000210CA8FFF7EAFC002801D072B6FEE7A2
:1017900013B030BD4038024000700040024801687C
:1017A00041F470010160704788ED00E0FEE7090731
:1017B000090E002804DB00F1E02080F800147047D7
:1017C00000F00F0000F1E02080F8141D70470000C9
:1017D00008B5FFF731FCFFF79FFF144C206840F07D
:1017E00080002060206800F080000090206840F0B9
:1017F00001002060206800F001000090FFF744FF26
:10180000206840F4800020602068002200F48000FE
:10181000009011463820FFF76FFC3820FFF75EFC80
:10182000032203490348FFF705F9FEE73038024079
:1018300000000020180000204FF04070E1EE100A78
:101840007047000610160006101600000000000089
:101850000000010203040607080900007C180008C4
:101860000000002018000000D001000894180008B3
:101870001800002008070000EC010008000000002C
:101880000000000001000000100000000000000047
:041890000024F4003C
:040000050800019559
:00000001FF
