:100000000C9463000C9475000C9475000C947500AE
:100010000C9475000C9475000C9475000C9475008C
:100020000C9475000C9475000C9475000C9475007C
:100030000C9475000C9475000C9475000C9475006C
:100040000C9408010C9475000C9475000C947500C8
:100050000C9475000C9475000C9475000C9475004C
:100060000C9475000C947500AD01AF01B101B301A2
:10007000B901BF01C901000000080002010000032E
:100080000407000000000000000000000000250040
:1000900028002B0000000000240027002A00040490
:1000A0000404040404040202020202020303030320
:1000B00003030102040810204080010204081020FC
:1000C00001020408102011241FBECFEFD8E0DEBFCC
:1000D000CDBF21E0A0E0B1E001C01D92A930B20780
:1000E000E1F70E9452010C940E020C94000090E083
:1000F000FC01EE54FF4F2491FC01E256FF4F849126
:10010000882399F090E0880F991FFC01EC56FF4F6F
:10011000A591B491FC01E657FF4F859194918FB75B
:10012000F894EC91E22BEC938FBF089590E0FC01E2
:10013000EA58FF4F2491FC01EE54FF4F3491FC012B
:10014000E256FF4FE491EE2309F43CC0222339F13B
:10015000233091F038F42130A9F0223001F584B534
:100160008F7D12C0273091F02830A1F02430B9F4EF
:10017000809180008F7D03C0809180008F77809375
:1001800080000DC084B58F7784BD09C08091B00018
:100190008F7703C08091B0008F7D8093B000F0E036
:1001A000EE0FFF1FE657FF4FA591B4919FB7F8944C
:1001B000611104C08C913095382302C0EC913E2B24
:1001C0003C939FBF08953FB7F894809105019091AB
:1001D0000601A0910701B091080126B5A89B05C0B2
:1001E0002F3F19F00196A11DB11D3FBFBA2FA92FB6
:1001F000982F8827820F911DA11DB11DBC01CD0133
:1002000042E0660F771F881F991F4A95D1F708951E
:100210001F920F920FB60F9211242F933F938F933B
:100220009F93AF93BF938091010190910201A091A0
:100230000301B09104013091000123E0230F2D3719
:1002400020F40196A11DB11D05C026E8230F0296DA
:10025000A11DB11D20930001809301019093020123
:10026000A0930301B09304018091050190910601D0
:10027000A0910701B09108010196A11DB11D8093C5
:10028000050190930601A0930701B0930801BF9167
:10029000AF919F918F913F912F910F900FBE0F9033
:1002A0001F901895789484B5826084BD84B5816070
:1002B00084BD85B5826085BD85B5816085BD809131
:1002C0006E00816080936E001092810080918100A9
:1002D00082608093810080918100816080938100A1
:1002E000809180008160809380008091B100846063
:1002F0008093B1008091B00081608093B0008091C4
:100300007A00846080937A0080917A008260809382
:100310007A0080917A00816080937A0080917A00DF
:10032000806880937A001092C10083E00E94770079
:1003300082E00E94770081E00E94770000E010E0F8
:10034000C0E0D0E0FE013197E730F10520F4EC5C2D
:10035000FF4F0C94080260E007C060E00BC060E053
:100360000FC060E017C061E081E00E94960060E08D
:100370000BC061E081E00E94960060E00FC061E088
:1003800081E00E94960061E082E00E94960060E0B9
:1003900009C061E081E00E94960061E082E00E9475
:1003A000960061E083E00E9496000E94E3004B010A
:1003B0005C0184EFC82EDD24D394E12CF12C0E9443
:1003C000E300DC01CB0188199909AA09BB09883E21
:1003D0009340A105B10598F321E0C21AD108E108C4
:1003E000F10888EE880E83E0981EA11CB11CC11490
:1003F000D104E104F10419F72196C830D10509F0C0
:10040000A1CF0115110509F49BCF0E94000098CFE0
:10041000EE0FFF1F0590F491E02D0994F894FFCFA3
:00000001FF
